:100000000C9434000C9449000C9449000C94490061
:100010000C9449000C9449000C9449000C9449003C
:100020000C9449000C9449000C9449000C9449002C
:100030000C9449000C9449000C9449000C9449001C
:100040000C9449000C9449000C9449000C9449000C
:100050000C9449000C9449000C9449000C944900FC
:100060000C9449000C94490011241FBECFEFD8E036
:10007000DEBFCDBF11E0A0E0B1E0E4EFF1E002C0EF
:1000800005900D92A031B107D9F70E9481000C9420
:10009000F8000C9400009091C00095FFFCCF809375
:1000A000C6000895CF93DF93C82F80E3C43630F0A5
:1000B0008CE98C0F843640F0C85C82E3D0E3CA3010
:1000C00030F0CA50DF5FFBCFC82F81E3F7CF80331A
:1000D00059F00E944B008D2F0E944B0080E38C0F43
:1000E000DF91CF910C944B00D033A9F7F7CF8093D9
:1000F000BB0084E88093BC008091BC0087FFFCCFEC
:1001000008951092B90088E48093B80087E6809340
:10011000C4001092C50086E08093C20088E18093FD
:10012000C100259AD4EA24E8D22E34E9C32E0DE08A
:1001300011E0D093BC008091BC0087FFFCCF8AE91E
:100140000E94770080E00E947700D093BC008091ED
:10015000BC0087FFFCCF8BE90E947700D092BC00E7
:100160008091BC0087FFFCCFC091BB00C092BC0057
:100170008091BC0084FDFCCF90E0E92E91E0F92E47
:10018000C233E8F02D9A80E0E82E81E0F82EF701E6
:1001900081917F0118161CF40E944B00F8CF8C2F20
:1001A0000E945200802F0E944B00FFEF21EE84E05E
:1001B000F15020408040E1F700C00000BACFF701C5
:1001C00081917F0118161CF40E944B00F8CF8C2FF0
:1001D0000E945200802F0E944B00FFEF21EE84E02E
:1001E000F15020408040E1F700C000002D98A1CFE1
:0401F000F894FFCFB1
:1001F40054656D7028696E2043293A20000A000076
:00000001FF
